:100000007590FF75A000209019110D80F9D2B211E2
:1000100053116A742011D111DE119511E711E71106
:10002000E722C2B21153116A742011D111DE744E4D
:1000300011D111DE744F11D111DE745411D111DEC2
:10004000740611C474C011C411DE119511DE11DEE5
:1000500080B422743811C4740E11C4740111C474B4
:100060000611C4748011C411DE22744111D111DE55
:10007000744C11D111DE744311D111DE744F11D1C2
:1000800011DE744811D111DE744F11D111DE744CA0
:1000900011D111DE22744411D111DE744511D11138
:1000A000DE745411D111DE744511D111DE74431187
:1000B000D111DE745411D1744511D111DE74441183
:1000C000D111DE22F5A0C2B5C2B6D2B711DEC2B7D9
:1000D00022F5A0D2B5C2B6D2B711DEC2B7227B6478
:1000E0007CFFDCFEDBFA227D0A7EFF7FFFDFFEDE87
:0400F000FADDF6221D
:00000001FF
